:100000000C9435000C945D000C945D000C945D0024
:100010000C945D000C945D000C945D000C945D00EC
:100020000C945D000C945D000C945D000C945D00DC
:100030000C945D000C945D000C945D000C945D00CC
:100040000C9489010C945D000C94F9010C94D3017B
:100050000C945D000C945D000C945D000C945D00AC
:100060000C945D000C945D002B0211241FBECFEF99
:10007000D8E0DEBFCDBF11E0A0E0B1E0E8E0F6E0FF
:1000800002C005900D92A43CB107D9F722E0A4EC80
:10009000B1E001C01D92AE36B207E1F710E0C5E352
:1000A000D0E004C02197FE010E94FC02C433D107B6
:1000B000C9F70E945E020C9402030C940000AF92F8
:1000C000BF92CF92DF92EF92FF920F931F93CF9345
:1000D000DF936C017B018B01040F151FEB015E01A7
:1000E000AE18BF08C017D10759F06991D601ED913C
:1000F000FC910190F081E02DC6010995892B79F7DB
:10010000C501DF91CF911F910F91FF90EF90DF908C
:10011000CF90BF90AF900895FC01538D448D252F53
:1001200030E0842F90E0821B930B541710F0CF9691
:10013000089501970895FC01918D828D981761F0C3
:10014000A28DAE0FBF2FB11D5D968C91928D9F5FDA
:100150009F73928F90E008958FEF9FEF0895FC01B9
:10016000918D828D981731F0828DE80FF11D858D6C
:1001700090E008958FEF9FEF0895FC01918D228DFF
:10018000892F90E0805C9F4F821B91098F73992784
:1001900008958DEC91E00E94BD0021E0892B09F4C7
:1001A00020E0822F089580E090E0892B29F00E94C2
:1001B000C90081110C9400000895FC01A48DA80FC2
:1001C000B92FB11DA35ABF4F2C91848D90E0019699
:1001D0008F739927848FA689B7892C93A089B189B9
:1001E0008C91837080648C93938D848D981306C05A
:1001F0000288F389E02D80818F7D80830895EF92BE
:10020000FF920F931F93CF93DF93EC0181E0888FD0
:100210009B8D8C8D98131AC0E889F989808185FFA0
:1002200015C09FB7F894EE89FF896083E889F98942
:1002300080818370806480839FBF81E090E0DF9144
:10024000CF911F910F91FF90EF900895F62E0B8D97
:1002500010E00F5F1F4F0F731127E02E8C8D8E1152
:100260000CC00FB607FCFACFE889F989808185FFB9
:10027000F5CFCE010E94DD00F1CFEB8DEC0FFD2F0D
:10028000F11DE35AFF4FF0829FB7F8940B8FEA8974
:10029000FB8980818062CFCFCF93DF93EC01888D83
:1002A0008823B9F0AA89BB89E889F9898C9185FDF1
:1002B00003C0808186FD0DC00FB607FCF7CF8C917F
:1002C00085FFF2CF808185FFEDCFCE010E94DD005A
:1002D000E9CFDF91CF910895CF93DF93FC01019097
:1002E0000020E9F73197AF01481B590BBC018DEC99
:1002F00091E00E945F00EC0142E050E062E171E0B9
:100300008DEC91E00E945F008C0F9D1FDF91CF91DB
:1003100008951F920F920FB60F9211242F933F93BF
:100320008F939F93AF93BF938091C9019091CA011E
:10033000A091CB01B091CC013091C80123E0230FF3
:100340002D3758F50196A11DB11D2093C80180934A
:10035000C9019093CA01A093CB01B093CC018091C5
:10036000C4019091C501A091C601B091C701019649
:10037000A11DB11D8093C4019093C501A093C60136
:10038000B093C701BF91AF919F918F913F912F91F2
:100390000F900FBE0F901F90189526E8230F02961E
:1003A000A11DB11DD2CF1F920F920FB60F92112433
:1003B0002F933F934F935F936F937F938F939F936D
:1003C000AF93BF93EF93FF938DEC91E00E94DD001C
:1003D000FF91EF91BF91AF919F918F917F916F911D
:1003E0005F914F913F912F910F900FBE0F901F90F3
:1003F00018951F920F920FB60F9211242F938F937F
:100400009F93EF93FF93E091DD01F091DE018081F6
:10041000E091E301F091E40182FD1BC090818091A5
:10042000E6018F5F8F732091E701821741F0E09121
:10043000E601F0E0E353FE4F958F8093E601FF91D4
:10044000EF919F918F912F910F900FBE0F901F9062
:1004500018958081F4CFEDECF1E01382128288EEE2
:1004600093E0A0E0B0E084839583A683B78384E023
:1004700091E09183808385EC90E09587848784EC7C
:1004800090E09787868780EC90E0918B808B81EC61
:1004900090E0938B828B82EC90E0958B848B86EC42
:1004A00090E0978B868B118E128E138E148E81E0C6
:1004B00090E090936B0280936A020895789484B5DB
:1004C000826084BD84B5816084BD85B5826085BD50
:1004D00085B5816085BD80916E00816080936E00DE
:1004E00010928100809181008260809381008091D0
:1004F0008100816080938100809180008160809381
:1005000080008091B10084608093B1008091B00040
:1005100081608093B00080917A00846080937A003B
:1005200080917A00826080937A0080917A00816065
:1005300080937A0080917A00806880937A0010928C
:10054000C100E091DD01F091DE0182E08083E09165
:10055000D901F091DA011082E091DB01F091DC0128
:100560008FEC80831092E501E091E101F091E201CE
:1005700086E08083E091DF01F091E001808180617D
:100580008083E091DF01F091E001808188608083C9
:10059000E091DF01F091E001808180688083E0914B
:1005A000DF01F091E00180818F7D808381E090E028
:1005B00090936B0280936A02C0E0D0E080916A025F
:1005C00090916B02019789F485E191E00E946C01A2
:1005D00081E591E00E946C01209781F30E94C9009F
:1005E000882361F30E940000E9CF81E791E00E9437
:1005F0006C0187EA91E0EECFEE0FFF1F0590F491BA
:08060000E02D0994F894FFCFEE
:1006080000000000FF005F008C004C01BD009B0053
:10061800AF000D0A00426F6F746C6F6164657220E1
:1006280069732064616D616765642E205265706C22
:100638006163696E672077697468206865616C74A6
:10064800687920626F6F746C6F616465722E2E2EEC
:1006580000426F6F746C6F61646572206C6F6164C7
:100668006564207375636365737366756C6C792E46
:1006780000426F6F746C6F616465722069732068E3
:1006880065616C7468792E2050726F636565646962
:100698006E672077697468206E6F726D616C206276
:1006A8006F6F742E2E2E00426F6F746C6F616465CD
:1006B8007220636F646520657865637574696E6719
:0406C8002E2E2E00A4
:00000001FF
